{
  "contractName": "C50CrowdsaleMintable",
  "abi": [
    {
      "constant": true,
      "inputs": [],
      "name": "hasClosed",
      "outputs": [
        {
          "name": "",
          "type": "bool"
        }
      ],
      "payable": false,
      "stateMutability": "view",
      "type": "function"
    },
    {
      "constant": true,
      "inputs": [],
      "name": "rate",
      "outputs": [
        {
          "name": "",
          "type": "uint256"
        }
      ],
      "payable": false,
      "stateMutability": "view",
      "type": "function"
    },
    {
      "constant": true,
      "inputs": [],
      "name": "cap",
      "outputs": [
        {
          "name": "",
          "type": "uint256"
        }
      ],
      "payable": false,
      "stateMutability": "view",
      "type": "function"
    },
    {
      "constant": true,
      "inputs": [],
      "name": "weiRaised",
      "outputs": [
        {
          "name": "",
          "type": "uint256"
        }
      ],
      "payable": false,
      "stateMutability": "view",
      "type": "function"
    },
    {
      "constant": true,
      "inputs": [],
      "name": "closingTime",
      "outputs": [
        {
          "name": "",
          "type": "uint256"
        }
      ],
      "payable": false,
      "stateMutability": "view",
      "type": "function"
    },
    {
      "constant": true,
      "inputs": [],
      "name": "capReached",
      "outputs": [
        {
          "name": "",
          "type": "bool"
        }
      ],
      "payable": false,
      "stateMutability": "view",
      "type": "function"
    },
    {
      "constant": true,
      "inputs": [],
      "name": "wallet",
      "outputs": [
        {
          "name": "",
          "type": "address"
        }
      ],
      "payable": false,
      "stateMutability": "view",
      "type": "function"
    },
    {
      "constant": true,
      "inputs": [],
      "name": "openingTime",
      "outputs": [
        {
          "name": "",
          "type": "uint256"
        }
      ],
      "payable": false,
      "stateMutability": "view",
      "type": "function"
    },
    {
      "constant": false,
      "inputs": [
        {
          "name": "_beneficiary",
          "type": "address"
        }
      ],
      "name": "buyTokens",
      "outputs": [],
      "payable": true,
      "stateMutability": "payable",
      "type": "function"
    },
    {
      "constant": true,
      "inputs": [],
      "name": "token",
      "outputs": [
        {
          "name": "",
          "type": "address"
        }
      ],
      "payable": false,
      "stateMutability": "view",
      "type": "function"
    },
    {
      "inputs": [
        {
          "name": "_openingTime",
          "type": "uint256"
        },
        {
          "name": "_closingTime",
          "type": "uint256"
        },
        {
          "name": "_rate",
          "type": "uint256"
        },
        {
          "name": "_wallet",
          "type": "address"
        },
        {
          "name": "_cap",
          "type": "uint256"
        },
        {
          "name": "_token",
          "type": "address"
        }
      ],
      "payable": false,
      "stateMutability": "nonpayable",
      "type": "constructor"
    },
    {
      "payable": true,
      "stateMutability": "payable",
      "type": "fallback"
    },
    {
      "anonymous": false,
      "inputs": [
        {
          "indexed": true,
          "name": "purchaser",
          "type": "address"
        },
        {
          "indexed": true,
          "name": "beneficiary",
          "type": "address"
        },
        {
          "indexed": false,
          "name": "value",
          "type": "uint256"
        },
        {
          "indexed": false,
          "name": "amount",
          "type": "uint256"
        }
      ],
      "name": "TokenPurchase",
      "type": "event"
    }
  ],
  "bytecode": "0x6060604052341561000f57600080fd5b60405160c08061058e833981016040528080519190602001805191906020018051919060200180519190602001805191906020018051915082905086868686856000831161005c57600080fd5b600160a060020a038216151561007157600080fd5b600160a060020a038116151561008657600080fd5b60029290925560018054600160a060020a03928316600160a060020a03199182161790915560008054929093169116179055428210156100c557600080fd5b818110156100d257600080fd5b600491909155600555600081116100e857600080fd5b60065550505050505061048e806101006000396000f3006060604052600436106100a35763ffffffff7c01000000000000000000000000000000000000000000000000000000006000350416631515bc2b81146100ae5780632c4e722e146100d5578063355274ea146100fa5780634042b66f1461010d5780634b6753bc146101205780634f93594514610133578063521eb27314610146578063b7a8807c14610175578063ec8ac4d814610188578063fc0c546a1461019c575b6100ac336101af565b005b34156100b957600080fd5b6100c1610257565b604051901515815260200160405180910390f35b34156100e057600080fd5b6100e861025f565b60405190815260200160405180910390f35b341561010557600080fd5b6100e8610265565b341561011857600080fd5b6100e861026b565b341561012b57600080fd5b6100e8610271565b341561013e57600080fd5b6100c1610277565b341561015157600080fd5b610159610282565b604051600160a060020a03909116815260200160405180910390f35b341561018057600080fd5b6100e8610291565b6100ac600160a060020a03600435166101af565b34156101a757600080fd5b610159610297565b3460006101bc83836102a6565b6101c5826102d5565b6003549091506101db908363ffffffff6102f216565b6003556101e8838261030c565b82600160a060020a031633600160a060020a03167f623b3804fa71d67900d064613da8f94b9617215ee90799290593e1745087ad18848460405191825260208201526040908101905180910390a361024083836102d1565b610248610316565b61025283836102d1565b505050565b600554421190565b60025481565b60065481565b60035481565b60055481565b600654600354101590565b600154600160a060020a031681565b60045481565b600054600160a060020a031681565b6102b0828261034c565b6006546003546102c6908363ffffffff6102f216565b11156102d157600080fd5b5050565b60006102ec6002548361037590919063ffffffff16565b92915050565b60008282018381101561030157fe5b8091505b5092915050565b6102d182826103a0565b600154600160a060020a03163480156108fc0290604051600060405180830381858888f19350505050151561034a57600080fd5b565b600454421015801561036057506005544211155b151561036b57600080fd5b6102d18282610441565b6000808315156103885760009150610305565b5082820282848281151561039857fe5b041461030157fe5b60008054600160a060020a0316906340c10f199084908490604051602001526040517c010000000000000000000000000000000000000000000000000000000063ffffffff8516028152600160a060020a0390921660048301526024820152604401602060405180830381600087803b151561041b57600080fd5b6102c65a03f1151561042c57600080fd5b5050506040518051905015156102d157600080fd5b600160a060020a038216151561045657600080fd5b8015156102d157600080fd00a165627a7a723058202e2b88cc91f857a81b5feca46e265ee1057ec0e779c5d51da30a9bfa04195a130029",
  "source": "pragma solidity 0.4.19;\n\nimport './C50.sol';\nimport 'zeppelin-solidity/contracts/crowdsale/emission/MintedCrowdsale.sol';\nimport 'zeppelin-solidity/contracts/crowdsale/validation/TimedCrowdsale.sol';\nimport 'zeppelin-solidity/contracts/crowdsale/validation/CappedCrowdsale.sol';\n\n\ncontract C50CrowdsaleMintable is TimedCrowdsale, MintedCrowdsale, CappedCrowdsale {\n    function C50CrowdsaleMintable\n        (\n            uint256 _openingTime,\n            uint256 _closingTime,\n            uint256 _rate,\n            address _wallet,\n            uint256 _cap,\n            MintableToken _token\n        )\n        public\n        Crowdsale(_rate, _wallet, _token)\n        CappedCrowdsale(_cap)\n        TimedCrowdsale(_openingTime, _closingTime) {\n\n        }\n}",
  "sourcePath": "/Users/mark/drive/development/c50/contracts/C50CrowdsaleMintable.sol",
  "compiler": {
    "name": "solc",
    "version": "0.4.19+commit.c4cbbb05.Emscripten.clang"
  },
  "schemaVersion": "2.0.0",
  "updatedAt": "2018-03-18T13:06:33.326Z"
}