{
  "contractName": "C50Crowdsale",
  "abi": [
    {
      "constant": true,
      "inputs": [],
      "name": "hasClosed",
      "outputs": [
        {
          "name": "",
          "type": "bool"
        }
      ],
      "payable": false,
      "stateMutability": "view",
      "type": "function"
    },
    {
      "constant": true,
      "inputs": [],
      "name": "rate",
      "outputs": [
        {
          "name": "",
          "type": "uint256"
        }
      ],
      "payable": false,
      "stateMutability": "view",
      "type": "function"
    },
    {
      "constant": true,
      "inputs": [],
      "name": "cap",
      "outputs": [
        {
          "name": "",
          "type": "uint256"
        }
      ],
      "payable": false,
      "stateMutability": "view",
      "type": "function"
    },
    {
      "constant": true,
      "inputs": [],
      "name": "weiRaised",
      "outputs": [
        {
          "name": "",
          "type": "uint256"
        }
      ],
      "payable": false,
      "stateMutability": "view",
      "type": "function"
    },
    {
      "constant": true,
      "inputs": [],
      "name": "closingTime",
      "outputs": [
        {
          "name": "",
          "type": "uint256"
        }
      ],
      "payable": false,
      "stateMutability": "view",
      "type": "function"
    },
    {
      "constant": true,
      "inputs": [],
      "name": "capReached",
      "outputs": [
        {
          "name": "",
          "type": "bool"
        }
      ],
      "payable": false,
      "stateMutability": "view",
      "type": "function"
    },
    {
      "constant": true,
      "inputs": [],
      "name": "wallet",
      "outputs": [
        {
          "name": "",
          "type": "address"
        }
      ],
      "payable": false,
      "stateMutability": "view",
      "type": "function"
    },
    {
      "constant": true,
      "inputs": [],
      "name": "openingTime",
      "outputs": [
        {
          "name": "",
          "type": "uint256"
        }
      ],
      "payable": false,
      "stateMutability": "view",
      "type": "function"
    },
    {
      "constant": true,
      "inputs": [],
      "name": "remainingTokens",
      "outputs": [
        {
          "name": "",
          "type": "uint256"
        }
      ],
      "payable": false,
      "stateMutability": "view",
      "type": "function"
    },
    {
      "constant": true,
      "inputs": [],
      "name": "tokenWallet",
      "outputs": [
        {
          "name": "",
          "type": "address"
        }
      ],
      "payable": false,
      "stateMutability": "view",
      "type": "function"
    },
    {
      "constant": false,
      "inputs": [
        {
          "name": "_beneficiary",
          "type": "address"
        }
      ],
      "name": "buyTokens",
      "outputs": [],
      "payable": true,
      "stateMutability": "payable",
      "type": "function"
    },
    {
      "constant": true,
      "inputs": [],
      "name": "token",
      "outputs": [
        {
          "name": "",
          "type": "address"
        }
      ],
      "payable": false,
      "stateMutability": "view",
      "type": "function"
    },
    {
      "inputs": [
        {
          "name": "_openingTime",
          "type": "uint256"
        },
        {
          "name": "_closingTime",
          "type": "uint256"
        },
        {
          "name": "_rate",
          "type": "uint256"
        },
        {
          "name": "_wallet",
          "type": "address"
        },
        {
          "name": "_cap",
          "type": "uint256"
        },
        {
          "name": "_tokenWallet",
          "type": "address"
        },
        {
          "name": "_token",
          "type": "address"
        }
      ],
      "payable": false,
      "stateMutability": "nonpayable",
      "type": "constructor"
    },
    {
      "payable": true,
      "stateMutability": "payable",
      "type": "fallback"
    },
    {
      "anonymous": false,
      "inputs": [
        {
          "indexed": true,
          "name": "purchaser",
          "type": "address"
        },
        {
          "indexed": true,
          "name": "beneficiary",
          "type": "address"
        },
        {
          "indexed": false,
          "name": "value",
          "type": "uint256"
        },
        {
          "indexed": false,
          "name": "amount",
          "type": "uint256"
        }
      ],
      "name": "TokenPurchase",
      "type": "event"
    }
  ],
  "bytecode": "0x6060604052341561000f57600080fd5b60405160e08061067b8339810160405280805191906020018051919060200180519190602001805191906020018051919060200180519190602001805191508290508388888888866000831161006457600080fd5b600160a060020a038216151561007957600080fd5b600160a060020a038116151561008e57600080fd5b60029290925560018054600160a060020a03928316600160a060020a03199182161790915560008054929093169116179055428210156100cd57600080fd5b818110156100da57600080fd5b600491909155600555600081116100f057600080fd5b600655600160a060020a038116151561010857600080fd5b60078054600160a060020a03909216600160a060020a03199092169190911790555050505050505061053c8061013f6000396000f3006060604052600436106100a05763ffffffff60e060020a6000350416631515bc2b81146100ab5780632c4e722e146100d2578063355274ea146100f75780634042b66f1461010a5780634b6753bc1461011d5780634f93594514610130578063521eb27314610143578063b7a8807c14610172578063bf58390314610185578063bff99c6c14610198578063ec8ac4d8146101ab578063fc0c546a146101bf575b6100a9336101d2565b005b34156100b657600080fd5b6100be61027a565b604051901515815260200160405180910390f35b34156100dd57600080fd5b6100e5610282565b60405190815260200160405180910390f35b341561010257600080fd5b6100e5610288565b341561011557600080fd5b6100e561028e565b341561012857600080fd5b6100e5610294565b341561013b57600080fd5b6100be61029a565b341561014e57600080fd5b6101566102a5565b604051600160a060020a03909116815260200160405180910390f35b341561017d57600080fd5b6100e56102b4565b341561019057600080fd5b6100e56102ba565b34156101a357600080fd5b610156610341565b6100a9600160a060020a03600435166101d2565b34156101ca57600080fd5b610156610350565b3460006101df838361035f565b6101e88261038e565b6003549091506101fe908363ffffffff6103ab16565b60035561020b83826103c5565b82600160a060020a031633600160a060020a03167f623b3804fa71d67900d064613da8f94b9617215ee90799290593e1745087ad18848460405191825260208201526040908101905180910390a3610263838361038a565b61026b6103cf565b610275838361038a565b505050565b600554421190565b60025481565b60065481565b60035481565b60055481565b600654600354101590565b600154600160a060020a031681565b60045481565b60008054600754600160a060020a039182169163dd62ed3e911630846040516020015260405160e060020a63ffffffff8516028152600160a060020a03928316600482015291166024820152604401602060405180830381600087803b151561032257600080fd5b6102c65a03f1151561033357600080fd5b505050604051805191505090565b600754600160a060020a031681565b600054600160a060020a031681565b6103698282610405565b60065460035461037f908363ffffffff6103ab16565b111561038a57600080fd5b5050565b60006103a56002548361042e90919063ffffffff16565b92915050565b6000828201838110156103ba57fe5b8091505b5092915050565b61038a8282610459565b600154600160a060020a03163480156108fc0290604051600060405180830381858888f19350505050151561040357600080fd5b565b600454421015801561041957506005544211155b151561042457600080fd5b61038a82826104ef565b60008083151561044157600091506103be565b5082820282848281151561045157fe5b04146103ba57fe5b60008054600754600160a060020a03918216926323b872dd9290911690859085906040516020015260405160e060020a63ffffffff8616028152600160a060020a0393841660048201529190921660248201526044810191909152606401602060405180830381600087803b15156104d057600080fd5b6102c65a03f115156104e157600080fd5b505050604051805150505050565b600160a060020a038216151561050457600080fd5b80151561038a57600080fd00a165627a7a72305820a02b30297cb7268071467399198d5b23b45ceef4d65503b169f88b3f4fbdfba10029",
  "source": "pragma solidity 0.4.19;\n\nimport './C50.sol';\nimport 'zeppelin-solidity/contracts/crowdsale/validation/TimedCrowdsale.sol';\nimport 'zeppelin-solidity/contracts/crowdsale/validation/CappedCrowdsale.sol';\nimport 'zeppelin-solidity/contracts/crowdsale/emission/AllowanceCrowdsale.sol';\n\n\ncontract C50Crowdsale is TimedCrowdsale, CappedCrowdsale, AllowanceCrowdsale {\n    function C50Crowdsale\n        (\n            uint256 _openingTime,\n            uint256 _closingTime,\n            uint256 _rate,\n            address _wallet,\n            uint256 _cap,\n            address _tokenWallet,\n            ERC20 _token\n        )\n        public\n        Crowdsale(_rate, _wallet, _token)\n        CappedCrowdsale(_cap)\n        AllowanceCrowdsale(_tokenWallet)\n        TimedCrowdsale(_openingTime, _closingTime) {\n\n        }\n}",
  "sourcePath": "/Users/mark/drive/development/c50/contracts/C50Crowdsale.sol",
  "compiler": {
    "name": "solc",
    "version": "0.4.19+commit.c4cbbb05.Emscripten.clang"
  },
  "schemaVersion": "2.0.0",
  "updatedAt": "2018-04-14T11:47:18.548Z"
}