{
  "contractName": "C50V2",
  "abi": [
    {
      "constant": true,
      "inputs": [],
      "name": "mintingFinished",
      "outputs": [
        {
          "name": "",
          "type": "bool"
        }
      ],
      "payable": false,
      "stateMutability": "view",
      "type": "function"
    },
    {
      "constant": true,
      "inputs": [],
      "name": "name",
      "outputs": [
        {
          "name": "",
          "type": "string"
        }
      ],
      "payable": false,
      "stateMutability": "view",
      "type": "function"
    },
    {
      "constant": false,
      "inputs": [
        {
          "name": "_spender",
          "type": "address"
        },
        {
          "name": "_value",
          "type": "uint256"
        }
      ],
      "name": "approve",
      "outputs": [
        {
          "name": "",
          "type": "bool"
        }
      ],
      "payable": false,
      "stateMutability": "nonpayable",
      "type": "function"
    },
    {
      "constant": true,
      "inputs": [],
      "name": "totalSupply",
      "outputs": [
        {
          "name": "",
          "type": "uint256"
        }
      ],
      "payable": false,
      "stateMutability": "view",
      "type": "function"
    },
    {
      "constant": false,
      "inputs": [
        {
          "name": "_from",
          "type": "address"
        },
        {
          "name": "_to",
          "type": "address"
        },
        {
          "name": "_value",
          "type": "uint256"
        }
      ],
      "name": "transferFrom",
      "outputs": [
        {
          "name": "",
          "type": "bool"
        }
      ],
      "payable": false,
      "stateMutability": "nonpayable",
      "type": "function"
    },
    {
      "constant": true,
      "inputs": [],
      "name": "rate",
      "outputs": [
        {
          "name": "",
          "type": "uint256"
        }
      ],
      "payable": false,
      "stateMutability": "view",
      "type": "function"
    },
    {
      "constant": true,
      "inputs": [],
      "name": "INITIAL_SUPPLY",
      "outputs": [
        {
          "name": "",
          "type": "uint256"
        }
      ],
      "payable": false,
      "stateMutability": "view",
      "type": "function"
    },
    {
      "constant": true,
      "inputs": [],
      "name": "decimals",
      "outputs": [
        {
          "name": "",
          "type": "uint8"
        }
      ],
      "payable": false,
      "stateMutability": "view",
      "type": "function"
    },
    {
      "constant": true,
      "inputs": [],
      "name": "MAX_SUPPLY",
      "outputs": [
        {
          "name": "",
          "type": "uint256"
        }
      ],
      "payable": false,
      "stateMutability": "view",
      "type": "function"
    },
    {
      "constant": false,
      "inputs": [],
      "name": "unpause",
      "outputs": [],
      "payable": false,
      "stateMutability": "nonpayable",
      "type": "function"
    },
    {
      "constant": true,
      "inputs": [],
      "name": "weiRaised",
      "outputs": [
        {
          "name": "",
          "type": "uint256"
        }
      ],
      "payable": false,
      "stateMutability": "view",
      "type": "function"
    },
    {
      "constant": false,
      "inputs": [
        {
          "name": "_to",
          "type": "address"
        },
        {
          "name": "_amount",
          "type": "uint256"
        }
      ],
      "name": "mint",
      "outputs": [
        {
          "name": "",
          "type": "bool"
        }
      ],
      "payable": false,
      "stateMutability": "nonpayable",
      "type": "function"
    },
    {
      "constant": true,
      "inputs": [],
      "name": "wallet",
      "outputs": [
        {
          "name": "",
          "type": "address"
        }
      ],
      "payable": false,
      "stateMutability": "view",
      "type": "function"
    },
    {
      "constant": true,
      "inputs": [],
      "name": "paused",
      "outputs": [
        {
          "name": "",
          "type": "bool"
        }
      ],
      "payable": false,
      "stateMutability": "view",
      "type": "function"
    },
    {
      "constant": false,
      "inputs": [
        {
          "name": "_spender",
          "type": "address"
        },
        {
          "name": "_subtractedValue",
          "type": "uint256"
        }
      ],
      "name": "decreaseApproval",
      "outputs": [
        {
          "name": "",
          "type": "bool"
        }
      ],
      "payable": false,
      "stateMutability": "nonpayable",
      "type": "function"
    },
    {
      "constant": true,
      "inputs": [
        {
          "name": "_owner",
          "type": "address"
        }
      ],
      "name": "balanceOf",
      "outputs": [
        {
          "name": "",
          "type": "uint256"
        }
      ],
      "payable": false,
      "stateMutability": "view",
      "type": "function"
    },
    {
      "constant": false,
      "inputs": [],
      "name": "renounceOwnership",
      "outputs": [],
      "payable": false,
      "stateMutability": "nonpayable",
      "type": "function"
    },
    {
      "constant": false,
      "inputs": [],
      "name": "finishMinting",
      "outputs": [
        {
          "name": "",
          "type": "bool"
        }
      ],
      "payable": false,
      "stateMutability": "nonpayable",
      "type": "function"
    },
    {
      "constant": false,
      "inputs": [],
      "name": "pause",
      "outputs": [],
      "payable": false,
      "stateMutability": "nonpayable",
      "type": "function"
    },
    {
      "constant": true,
      "inputs": [],
      "name": "owner",
      "outputs": [
        {
          "name": "",
          "type": "address"
        }
      ],
      "payable": false,
      "stateMutability": "view",
      "type": "function"
    },
    {
      "constant": true,
      "inputs": [],
      "name": "symbol",
      "outputs": [
        {
          "name": "",
          "type": "string"
        }
      ],
      "payable": false,
      "stateMutability": "view",
      "type": "function"
    },
    {
      "constant": false,
      "inputs": [
        {
          "name": "_to",
          "type": "address"
        },
        {
          "name": "_value",
          "type": "uint256"
        }
      ],
      "name": "transfer",
      "outputs": [
        {
          "name": "",
          "type": "bool"
        }
      ],
      "payable": false,
      "stateMutability": "nonpayable",
      "type": "function"
    },
    {
      "constant": false,
      "inputs": [
        {
          "name": "_spender",
          "type": "address"
        },
        {
          "name": "_addedValue",
          "type": "uint256"
        }
      ],
      "name": "increaseApproval",
      "outputs": [
        {
          "name": "",
          "type": "bool"
        }
      ],
      "payable": false,
      "stateMutability": "nonpayable",
      "type": "function"
    },
    {
      "constant": true,
      "inputs": [
        {
          "name": "_owner",
          "type": "address"
        },
        {
          "name": "_spender",
          "type": "address"
        }
      ],
      "name": "allowance",
      "outputs": [
        {
          "name": "",
          "type": "uint256"
        }
      ],
      "payable": false,
      "stateMutability": "view",
      "type": "function"
    },
    {
      "constant": false,
      "inputs": [
        {
          "name": "_newOwner",
          "type": "address"
        }
      ],
      "name": "transferOwnership",
      "outputs": [],
      "payable": false,
      "stateMutability": "nonpayable",
      "type": "function"
    },
    {
      "inputs": [
        {
          "name": "_owner",
          "type": "address"
        }
      ],
      "payable": false,
      "stateMutability": "nonpayable",
      "type": "constructor"
    },
    {
      "payable": true,
      "stateMutability": "payable",
      "type": "fallback"
    },
    {
      "anonymous": false,
      "inputs": [
        {
          "indexed": true,
          "name": "purchaser",
          "type": "address"
        },
        {
          "indexed": true,
          "name": "beneficiary",
          "type": "address"
        },
        {
          "indexed": false,
          "name": "value",
          "type": "uint256"
        },
        {
          "indexed": false,
          "name": "amount",
          "type": "uint256"
        }
      ],
      "name": "TokenPurchase",
      "type": "event"
    },
    {
      "anonymous": false,
      "inputs": [
        {
          "indexed": true,
          "name": "to",
          "type": "address"
        },
        {
          "indexed": false,
          "name": "amount",
          "type": "uint256"
        }
      ],
      "name": "Mint",
      "type": "event"
    },
    {
      "anonymous": false,
      "inputs": [
        {
          "indexed": false,
          "name": "wallet",
          "type": "address"
        }
      ],
      "name": "SetWallet",
      "type": "event"
    },
    {
      "anonymous": false,
      "inputs": [
        {
          "indexed": true,
          "name": "rate",
          "type": "uint256"
        }
      ],
      "name": "SetRate",
      "type": "event"
    },
    {
      "anonymous": false,
      "inputs": [],
      "name": "Pause",
      "type": "event"
    },
    {
      "anonymous": false,
      "inputs": [],
      "name": "Unpause",
      "type": "event"
    },
    {
      "anonymous": false,
      "inputs": [],
      "name": "MintFinished",
      "type": "event"
    },
    {
      "anonymous": false,
      "inputs": [
        {
          "indexed": true,
          "name": "previousOwner",
          "type": "address"
        }
      ],
      "name": "OwnershipRenounced",
      "type": "event"
    },
    {
      "anonymous": false,
      "inputs": [
        {
          "indexed": true,
          "name": "previousOwner",
          "type": "address"
        },
        {
          "indexed": true,
          "name": "newOwner",
          "type": "address"
        }
      ],
      "name": "OwnershipTransferred",
      "type": "event"
    },
    {
      "anonymous": false,
      "inputs": [
        {
          "indexed": true,
          "name": "owner",
          "type": "address"
        },
        {
          "indexed": true,
          "name": "spender",
          "type": "address"
        },
        {
          "indexed": false,
          "name": "value",
          "type": "uint256"
        }
      ],
      "name": "Approval",
      "type": "event"
    },
    {
      "anonymous": false,
      "inputs": [
        {
          "indexed": true,
          "name": "from",
          "type": "address"
        },
        {
          "indexed": true,
          "name": "to",
          "type": "address"
        },
        {
          "indexed": false,
          "name": "value",
          "type": "uint256"
        }
      ],
      "name": "Transfer",
      "type": "event"
    },
    {
      "constant": false,
      "inputs": [
        {
          "name": "_beneficiary",
          "type": "address"
        }
      ],
      "name": "buyTokens",
      "outputs": [],
      "payable": true,
      "stateMutability": "payable",
      "type": "function"
    },
    {
      "constant": false,
      "inputs": [
        {
          "name": "_wallet",
          "type": "address"
        }
      ],
      "name": "setWallet",
      "outputs": [],
      "payable": false,
      "stateMutability": "nonpayable",
      "type": "function"
    },
    {
      "constant": false,
      "inputs": [
        {
          "name": "_rate",
          "type": "uint256"
        }
      ],
      "name": "setRate",
      "outputs": [],
      "payable": false,
      "stateMutability": "nonpayable",
      "type": "function"
    }
  ],
  "bytecode": "0x6003805460a060020a61ffff021916905560c0604052601760808190527f43727970746f63757272656e637920353020496e64657800000000000000000060a090815262000051916004919062000166565b506040805180820190915260038082527f43353000000000000000000000000000000000000000000000000000000000006020909201918252620000989160059162000166565b506006805460ff19908116601217909155600a80549091169055348015620000bf57600080fd5b506040516020806200145383398101604081815291516003805433600160a060020a031991821681179092556a084595161401484a0000006001819055600160a060020a038416600081815260208181528882208490556101f46007556008805490951690921790935590855294519294919390927fddf252ad1be2c89b69c2b068fc378daa952ba7f163c4a11628f55a4df523b3ef929181900390910190a3506200020b565b828054600181600116156101000203166002900490600052602060002090601f016020900481019282601f10620001a957805160ff1916838001178555620001d9565b82800160010185558215620001d9579182015b82811115620001d9578251825591602001919060010190620001bc565b50620001e7929150620001eb565b5090565b6200020891905b80821115620001e75760008155600101620001f2565b90565b611238806200021b6000396000f3006080604052600436106101695763ffffffff7c010000000000000000000000000000000000000000000000000000000060003504166305d2035b811461017457806306fdde031461019d578063095ea7b31461022757806318160ddd1461024b57806323b872dd146102725780632c4e722e1461029c5780632ff2e9dc146102b1578063313ce567146102c657806332cb6b0c146102f157806334fcf437146103065780633f4ba83a1461031e5780634042b66f1461033357806340c10f1914610348578063521eb2731461036c5780635c975abb1461039d57806366188463146103b257806370a08231146103d6578063715018a6146103f75780637d64bcb41461040c5780638456cb59146104215780638da5cb5b1461043657806395d89b411461044b578063a9059cbb14610460578063d73dd62314610484578063dd62ed3e146104a8578063deaa59df146104cf578063ec8ac4d8146104f0578063f2fde38b14610504575b61017233610525565b005b34801561018057600080fd5b50610189610706565b604080519115158252519081900360200190f35b3480156101a957600080fd5b506101b2610727565b6040805160208082528351818301528351919283929083019185019080838360005b838110156101ec5781810151838201526020016101d4565b50505050905090810190601f1680156102195780820380516001836020036101000a031916815260200191505b509250505060405180910390f35b34801561023357600080fd5b50610189600160a060020a03600435166024356107b5565b34801561025757600080fd5b5061026061081c565b60408051918252519081900360200190f35b34801561027e57600080fd5b50610189600160a060020a0360043581169060243516604435610822565b3480156102a857600080fd5b50610260610985565b3480156102bd57600080fd5b5061026061098b565b3480156102d257600080fd5b506102db61099a565b6040805160ff9092168252519081900360200190f35b3480156102fd57600080fd5b506102606109a3565b34801561031257600080fd5b506101726004356109b4565b34801561032a57600080fd5b50610172610a22565b34801561033f57600080fd5b50610260610a9b565b34801561035457600080fd5b50610189600160a060020a0360043516602435610aa1565b34801561037857600080fd5b50610381610baa565b60408051600160a060020a039092168252519081900360200190f35b3480156103a957600080fd5b50610189610bb9565b3480156103be57600080fd5b50610189600160a060020a0360043516602435610bc2565b3480156103e257600080fd5b50610260600160a060020a0360043516610cb1565b34801561040357600080fd5b50610172610ccc565b34801561041857600080fd5b50610189610d3a565b34801561042d57600080fd5b50610172610de0565b34801561044257600080fd5b50610381610e5e565b34801561045757600080fd5b506101b2610e6d565b34801561046c57600080fd5b50610189600160a060020a0360043516602435610ec8565b34801561049057600080fd5b50610189600160a060020a0360043516602435610f95565b3480156104b457600080fd5b50610260600160a060020a036004358116906024351661102e565b3480156104db57600080fd5b50610172600160a060020a0360043516611059565b610172600160a060020a0360043516610525565b34801561051057600080fd5b50610172600160a060020a0360043516611103565b600354600090819060a860020a900460ff161561054157600080fd5b349150600160a060020a038316151561055957600080fd5b6000821161056657600080fd5b60075461057a90839063ffffffff61112616565b600954909150610590908363ffffffff61114f16565b6009556001546c0327cb2734119d3b7a90000000906105b5908363ffffffff61114f16565b11156105c057600080fd5b6001546105d3908263ffffffff61114f16565b600155600160a060020a0383166000908152602081905260409020546105ff908263ffffffff61114f16565b600160a060020a03841660008181526020818152604091829020939093558051848152905191927f0f6798a560793a54c3bcfe86a93cde1e73087d944c0ea20544137d412139688592918290030190a2604080518281529051600160a060020a038516916000916000805160206111ed8339815191529181900360200190a360408051838152602081018390528151600160a060020a0386169233927f623b3804fa71d67900d064613da8f94b9617215ee90799290593e1745087ad18929081900390910190a3600854604051600160a060020a039091169083156108fc029084906000818181858888f19350505050158015610700573d6000803e3d6000fd5b50505050565b60035474010000000000000000000000000000000000000000900460ff1681565b6004805460408051602060026001851615610100026000190190941693909304601f810184900484028201840190925281815292918301828280156107ad5780601f10610782576101008083540402835291602001916107ad565b820191906000526020600020905b81548152906001019060200180831161079057829003601f168201915b505050505081565b336000818152600260209081526040808320600160a060020a038716808552908352818420869055815186815291519394909390927f8c5be1e5ebec7d5bd14f71427d1e84f3dd0314c0f7b2291e5b200ac8c7c3b925928290030190a35060015b92915050565b60015490565b600160a060020a03831660009081526020819052604081205482111561084757600080fd5b600160a060020a038416600090815260026020908152604080832033845290915290205482111561087757600080fd5b600160a060020a038316151561088c57600080fd5b600160a060020a0384166000908152602081905260409020546108b5908363ffffffff61115c16565b600160a060020a0380861660009081526020819052604080822093909355908516815220546108ea908363ffffffff61114f16565b600160a060020a0380851660009081526020818152604080832094909455918716815260028252828120338252909152205461092c908363ffffffff61115c16565b600160a060020a03808616600081815260026020908152604080832033845282529182902094909455805186815290519287169391926000805160206111ed833981519152929181900390910190a35060019392505050565b60075481565b6a084595161401484a00000081565b60065460ff1681565b6c0327cb2734119d3b7a9000000081565b600354600160a060020a031633146109cb57600080fd5b60035460a860020a900460ff16156109e257600080fd5b600081116109ef57600080fd5b600781905560405181907f2640b4015d3473fd09bf2b30939e17deb4068cdacf3892136e737e166ceb321090600090a250565b600354600160a060020a03163314610a3957600080fd5b60035460a860020a900460ff161515610a5157600080fd5b6003805475ff000000000000000000000000000000000000000000191690556040517f7805862f689e2f13df9f062ff482ad3ad112aca9e0847911ed832e158c525b3390600090a1565b60095481565b600354600090600160a060020a03163314610abb57600080fd5b60035474010000000000000000000000000000000000000000900460ff1615610ae357600080fd5b600154610af6908363ffffffff61114f16565b600155600160a060020a038316600090815260208190526040902054610b22908363ffffffff61114f16565b600160a060020a03841660008181526020818152604091829020939093558051858152905191927f0f6798a560793a54c3bcfe86a93cde1e73087d944c0ea20544137d412139688592918290030190a2604080518381529051600160a060020a038516916000916000805160206111ed8339815191529181900360200190a350600192915050565b600854600160a060020a031681565b600a5460ff1681565b336000908152600260209081526040808320600160a060020a0386168452909152812054808310610c1657336000908152600260209081526040808320600160a060020a0388168452909152812055610c4b565b610c26818463ffffffff61115c16565b336000908152600260209081526040808320600160a060020a03891684529091529020555b336000818152600260209081526040808320600160a060020a0389168085529083529281902054815190815290519293927f8c5be1e5ebec7d5bd14f71427d1e84f3dd0314c0f7b2291e5b200ac8c7c3b925929181900390910190a35060019392505050565b600160a060020a031660009081526020819052604090205490565b600354600160a060020a03163314610ce357600080fd5b600354604051600160a060020a03909116907ff8df31144d9c2f0f6b59d69b8b98abd5459d07f2742c4df920b25aae33c6482090600090a26003805473ffffffffffffffffffffffffffffffffffffffff19169055565b600354600090600160a060020a03163314610d5457600080fd5b60035474010000000000000000000000000000000000000000900460ff1615610d7c57600080fd5b6003805474ff00000000000000000000000000000000000000001916740100000000000000000000000000000000000000001790556040517fae5184fba832cb2b1f702aca6117b8d265eaf03ad33eb133f19dde0f5920fa0890600090a150600190565b600354600160a060020a03163314610df757600080fd5b60035460a860020a900460ff1615610e0e57600080fd5b6003805475ff000000000000000000000000000000000000000000191660a860020a1790556040517f6985a02210a168e66602d3235cb6db0e70f92b3ba4d376a33c0f3d9434bff62590600090a1565b600354600160a060020a031681565b6005805460408051602060026001851615610100026000190190941693909304601f810184900484028201840190925281815292918301828280156107ad5780601f10610782576101008083540402835291602001916107ad565b33600090815260208190526040812054821115610ee457600080fd5b600160a060020a0383161515610ef957600080fd5b33600090815260208190526040902054610f19908363ffffffff61115c16565b3360009081526020819052604080822092909255600160a060020a03851681522054610f4b908363ffffffff61114f16565b600160a060020a038416600081815260208181526040918290209390935580518581529051919233926000805160206111ed8339815191529281900390910190a350600192915050565b336000908152600260209081526040808320600160a060020a0386168452909152812054610fc9908363ffffffff61114f16565b336000818152600260209081526040808320600160a060020a0389168085529083529281902085905580519485525191937f8c5be1e5ebec7d5bd14f71427d1e84f3dd0314c0f7b2291e5b200ac8c7c3b925929081900390910190a350600192915050565b600160a060020a03918216600090815260026020908152604080832093909416825291909152205490565b600354600160a060020a0316331461107057600080fd5b60035460a860020a900460ff161561108757600080fd5b600160a060020a038116151561109c57600080fd5b6008805473ffffffffffffffffffffffffffffffffffffffff1916600160a060020a03838116919091179182905560408051929091168252517fe80d9383fb35934b174e9a5986b6ec524e533eae802ba534282f7b0c5fdd42cc916020908290030190a150565b600354600160a060020a0316331461111a57600080fd5b6111238161116e565b50565b600082151561113757506000610816565b5081810281838281151561114757fe5b041461081657fe5b8181018281101561081657fe5b60008282111561116857fe5b50900390565b600160a060020a038116151561118357600080fd5b600354604051600160a060020a038084169216907f8be0079c531659141344cd1fd0a4f28419497f9722a3daafe3b4186f6b6457e090600090a36003805473ffffffffffffffffffffffffffffffffffffffff1916600160a060020a03929092169190911790555600ddf252ad1be2c89b69c2b068fc378daa952ba7f163c4a11628f55a4df523b3efa165627a7a72305820925221f3e6245041ab287c8dfdcc8d10f0c12b7060c88d00bf891cbf506906e40029",
  "source": "pragma solidity ^0.4.24;\n\nimport 'zeppelin-solidity/contracts/token/ERC20/MintableToken.sol';\nimport 'zeppelin-solidity/contracts/lifecycle/Pausable.sol';\n\ncontract C50V2 is MintableToken, Pausable {\n    string public name = \"Cryptocurrency 50 Index\";\n    string public symbol = \"C50\";\n    uint8 public decimals = 18;\n    uint256 public constant INITIAL_SUPPLY = 10000000 * (10 ** uint256(18));\n    uint256 public constant MAX_SUPPLY = 250000000000 * (10 ** uint256(18));\n    uint256 public rate; // How many token units a buyer gets per wei\n    address public wallet;  // Address where funds are collected\n    uint256 public weiRaised; // Amount of wei raised\n    bool public paused = false;\n\n  /**\n   * Event for token purchase logging\n   * @param purchaser who paid for the tokens\n   * @param beneficiary who got the tokens\n   * @param value weis paid for purchase\n   * @param amount amount of tokens purchased\n   */\n  event TokenPurchase(\n    address indexed purchaser,\n    address indexed beneficiary,\n    uint256 value,\n    uint256 amount\n  );\n\n  event Mint(address indexed to, uint256 amount);\n  event SetWallet(address wallet);\n  event SetRate(uint256 indexed rate);\n\n  constructor(address _owner) public {\n    totalSupply_ = INITIAL_SUPPLY;\n    balances[_owner] = INITIAL_SUPPLY;\n    rate = 500;\n    wallet = _owner;\n    emit Transfer(0x0, msg.sender, INITIAL_SUPPLY);\n  }\n\n  //Fallback function\n  function () external payable {\n    buyTokens(msg.sender);\n  }\n\n  function buyTokens(address _beneficiary) whenNotPaused public payable {\n    uint256 _weiAmount = msg.value;\n    require(_beneficiary != address(0));\n    require(_weiAmount > 0);\n\n    // calculate token amount to be created\n    uint256 _amount = _weiAmount.mul(rate);\n\n    // update state\n    weiRaised = weiRaised.add(_weiAmount);\n\n    require(totalSupply_.add(_amount) <= MAX_SUPPLY);\n\n    totalSupply_ = totalSupply_.add(_amount);\n    balances[_beneficiary] = balances[_beneficiary].add(_amount);\n    emit Mint(_beneficiary, _amount);\n    emit Transfer(address(0), _beneficiary, _amount);\n    emit TokenPurchase(msg.sender, _beneficiary, _weiAmount, _amount);\n\n    wallet.transfer(_weiAmount);\n  }\n\n\n  function setWallet(address _wallet) onlyOwner whenNotPaused public {\n    require(_wallet != address(0));\n    wallet = _wallet;\n    emit SetWallet(wallet);\n  }\n\n\n  function setRate(uint256 _rate) onlyOwner whenNotPaused public {\n    require(_rate > 0);\n    rate = _rate;\n    emit SetRate(rate);\n  }\n}",
  "sourcePath": "/home/mark/drive/development/c50/contracts/C50V2.sol",
  "compiler": {
    "name": "solc",
    "version": "0.4.24+commit.e67f0147.Emscripten.clang"
  },
  "schemaVersion": "2.0.1",
  "updatedAt": "2018-09-02T06:56:46.618Z"
}