{
  "contractName": "GCS",
  "abi": [
    {
      "constant": true,
      "inputs": [],
      "name": "name",
      "outputs": [
        {
          "name": "",
          "type": "string"
        }
      ],
      "payable": false,
      "stateMutability": "view",
      "type": "function"
    },
    {
      "constant": false,
      "inputs": [
        {
          "name": "_spender",
          "type": "address"
        },
        {
          "name": "_value",
          "type": "uint256"
        }
      ],
      "name": "approve",
      "outputs": [
        {
          "name": "",
          "type": "bool"
        }
      ],
      "payable": false,
      "stateMutability": "nonpayable",
      "type": "function"
    },
    {
      "constant": true,
      "inputs": [],
      "name": "totalSupply",
      "outputs": [
        {
          "name": "",
          "type": "uint256"
        }
      ],
      "payable": false,
      "stateMutability": "view",
      "type": "function"
    },
    {
      "constant": false,
      "inputs": [
        {
          "name": "_from",
          "type": "address"
        },
        {
          "name": "_to",
          "type": "address"
        },
        {
          "name": "_value",
          "type": "uint256"
        }
      ],
      "name": "transferFrom",
      "outputs": [
        {
          "name": "",
          "type": "bool"
        }
      ],
      "payable": false,
      "stateMutability": "nonpayable",
      "type": "function"
    },
    {
      "constant": true,
      "inputs": [],
      "name": "decimals",
      "outputs": [
        {
          "name": "",
          "type": "uint8"
        }
      ],
      "payable": false,
      "stateMutability": "view",
      "type": "function"
    },
    {
      "constant": true,
      "inputs": [],
      "name": "MAX_SUPPLY",
      "outputs": [
        {
          "name": "",
          "type": "uint256"
        }
      ],
      "payable": false,
      "stateMutability": "view",
      "type": "function"
    },
    {
      "constant": false,
      "inputs": [
        {
          "name": "_spender",
          "type": "address"
        },
        {
          "name": "_subtractedValue",
          "type": "uint256"
        }
      ],
      "name": "decreaseApproval",
      "outputs": [
        {
          "name": "",
          "type": "bool"
        }
      ],
      "payable": false,
      "stateMutability": "nonpayable",
      "type": "function"
    },
    {
      "constant": true,
      "inputs": [
        {
          "name": "_owner",
          "type": "address"
        }
      ],
      "name": "balanceOf",
      "outputs": [
        {
          "name": "balance",
          "type": "uint256"
        }
      ],
      "payable": false,
      "stateMutability": "view",
      "type": "function"
    },
    {
      "constant": true,
      "inputs": [],
      "name": "symbol",
      "outputs": [
        {
          "name": "",
          "type": "string"
        }
      ],
      "payable": false,
      "stateMutability": "view",
      "type": "function"
    },
    {
      "constant": false,
      "inputs": [
        {
          "name": "_to",
          "type": "address"
        },
        {
          "name": "_value",
          "type": "uint256"
        }
      ],
      "name": "transfer",
      "outputs": [
        {
          "name": "",
          "type": "bool"
        }
      ],
      "payable": false,
      "stateMutability": "nonpayable",
      "type": "function"
    },
    {
      "constant": false,
      "inputs": [
        {
          "name": "_spender",
          "type": "address"
        },
        {
          "name": "_addedValue",
          "type": "uint256"
        }
      ],
      "name": "increaseApproval",
      "outputs": [
        {
          "name": "",
          "type": "bool"
        }
      ],
      "payable": false,
      "stateMutability": "nonpayable",
      "type": "function"
    },
    {
      "constant": true,
      "inputs": [
        {
          "name": "_owner",
          "type": "address"
        },
        {
          "name": "_spender",
          "type": "address"
        }
      ],
      "name": "allowance",
      "outputs": [
        {
          "name": "",
          "type": "uint256"
        }
      ],
      "payable": false,
      "stateMutability": "view",
      "type": "function"
    },
    {
      "inputs": [],
      "payable": false,
      "stateMutability": "nonpayable",
      "type": "constructor"
    },
    {
      "anonymous": false,
      "inputs": [
        {
          "indexed": true,
          "name": "owner",
          "type": "address"
        },
        {
          "indexed": true,
          "name": "spender",
          "type": "address"
        },
        {
          "indexed": false,
          "name": "value",
          "type": "uint256"
        }
      ],
      "name": "Approval",
      "type": "event"
    },
    {
      "anonymous": false,
      "inputs": [
        {
          "indexed": true,
          "name": "from",
          "type": "address"
        },
        {
          "indexed": true,
          "name": "to",
          "type": "address"
        },
        {
          "indexed": false,
          "name": "value",
          "type": "uint256"
        }
      ],
      "name": "Transfer",
      "type": "event"
    }
  ],
  "bytecode": "0x606060405260408051908101604052601881527f47616c616374696320437265646974205374616e6461726400000000000000006020820152600390805161004b929160200190610114565b5060408051908101604052600381527f474353000000000000000000000000000000000000000000000000000000000060208201526004908051610093929160200190610114565b506005805460ff1916601217905534156100ac57600080fd5b6a115eec47f6cf7e350000006001819055600160a060020a033316600081815260208190526040808220849055919290917fddf252ad1be2c89b69c2b068fc378daa952ba7f163c4a11628f55a4df523b3ef91905190815260200160405180910390a36101af565b828054600181600116156101000203166002900490600052602060002090601f016020900481019282601f1061015557805160ff1916838001178555610182565b82800160010185558215610182579182015b82811115610182578251825591602001919060010190610167565b5061018e929150610192565b5090565b6101ac91905b8082111561018e5760008155600101610198565b90565b610921806101be6000396000f3006060604052600436106100b95763ffffffff7c010000000000000000000000000000000000000000000000000000000060003504166306fdde0381146100be578063095ea7b31461014857806318160ddd1461017e57806323b872dd146101a3578063313ce567146101cb57806332cb6b0c146101f4578063661884631461020757806370a082311461022957806395d89b4114610248578063a9059cbb1461025b578063d73dd6231461027d578063dd62ed3e1461029f575b600080fd5b34156100c957600080fd5b6100d16102c4565b60405160208082528190810183818151815260200191508051906020019080838360005b8381101561010d5780820151838201526020016100f5565b50505050905090810190601f16801561013a5780820380516001836020036101000a031916815260200191505b509250505060405180910390f35b341561015357600080fd5b61016a600160a060020a0360043516602435610362565b604051901515815260200160405180910390f35b341561018957600080fd5b6101916103ce565b60405190815260200160405180910390f35b34156101ae57600080fd5b61016a600160a060020a03600435811690602435166044356103d4565b34156101d657600080fd5b6101de610554565b60405160ff909116815260200160405180910390f35b34156101ff57600080fd5b61019161055d565b341561021257600080fd5b61016a600160a060020a036004351660243561056c565b341561023457600080fd5b610191600160a060020a0360043516610666565b341561025357600080fd5b6100d1610681565b341561026657600080fd5b61016a600160a060020a03600435166024356106ec565b341561028857600080fd5b61016a600160a060020a03600435166024356107fe565b34156102aa57600080fd5b610191600160a060020a03600435811690602435166108a2565b60038054600181600116156101000203166002900480601f01602080910402602001604051908101604052809291908181526020018280546001816001161561010002031660029004801561035a5780601f1061032f5761010080835404028352916020019161035a565b820191906000526020600020905b81548152906001019060200180831161033d57829003601f168201915b505050505081565b600160a060020a03338116600081815260026020908152604080832094871680845294909152808220859055909291907f8c5be1e5ebec7d5bd14f71427d1e84f3dd0314c0f7b2291e5b200ac8c7c3b9259085905190815260200160405180910390a350600192915050565b60015490565b6000600160a060020a03831615156103eb57600080fd5b600160a060020a03841660009081526020819052604090205482111561041057600080fd5b600160a060020a038085166000908152600260209081526040808320339094168352929052205482111561044357600080fd5b600160a060020a03841660009081526020819052604090205461046c908363ffffffff6108cd16565b600160a060020a0380861660009081526020819052604080822093909355908516815220546104a1908363ffffffff6108df16565b600160a060020a03808516600090815260208181526040808320949094558783168252600281528382203390931682529190915220546104e7908363ffffffff6108cd16565b600160a060020a03808616600081815260026020908152604080832033861684529091529081902093909355908516917fddf252ad1be2c89b69c2b068fc378daa952ba7f163c4a11628f55a4df523b3ef9085905190815260200160405180910390a35060019392505050565b60055460ff1681565b6a115eec47f6cf7e3500000081565b600160a060020a033381166000908152600260209081526040808320938616835292905290812054808311156105c957600160a060020a033381166000908152600260209081526040808320938816835292905290812055610600565b6105d9818463ffffffff6108cd16565b600160a060020a033381166000908152600260209081526040808320938916835292905220555b600160a060020a0333811660008181526002602090815260408083209489168084529490915290819020547f8c5be1e5ebec7d5bd14f71427d1e84f3dd0314c0f7b2291e5b200ac8c7c3b925915190815260200160405180910390a35060019392505050565b600160a060020a031660009081526020819052604090205490565b60048054600181600116156101000203166002900480601f01602080910402602001604051908101604052809291908181526020018280546001816001161561010002031660029004801561035a5780601f1061032f5761010080835404028352916020019161035a565b6000600160a060020a038316151561070357600080fd5b600160a060020a03331660009081526020819052604090205482111561072857600080fd5b600160a060020a033316600090815260208190526040902054610751908363ffffffff6108cd16565b600160a060020a033381166000908152602081905260408082209390935590851681522054610786908363ffffffff6108df16565b60008085600160a060020a0316600160a060020a031681526020019081526020016000208190555082600160a060020a031633600160a060020a03167fddf252ad1be2c89b69c2b068fc378daa952ba7f163c4a11628f55a4df523b3ef8460405190815260200160405180910390a350600192915050565b600160a060020a033381166000908152600260209081526040808320938616835292905290812054610836908363ffffffff6108df16565b600160a060020a0333811660008181526002602090815260408083209489168084529490915290819020849055919290917f8c5be1e5ebec7d5bd14f71427d1e84f3dd0314c0f7b2291e5b200ac8c7c3b92591905190815260200160405180910390a350600192915050565b600160a060020a03918216600090815260026020908152604080832093909416825291909152205490565b6000828211156108d957fe5b50900390565b6000828201838110156108ee57fe5b93925050505600a165627a7a72305820efe12e371c4c1140521a63fa2cf9d4fe4eaa27c5b3317e660f67ebdbb0e1a72c0029",
  "source": "pragma solidity 0.4.19;\n\nimport 'zeppelin-solidity/contracts/token/ERC20/StandardToken.sol';\n\ncontract GCS is StandardToken {\n    string public name = \"Galactic Credit Standard\";\n    string public symbol = \"GCS\";\n    uint8 public decimals = 18;\n    uint256 public constant MAX_SUPPLY = 21000000 * (10 ** uint256(18));\n\n    function GCS() public {\n    \ttotalSupply_ = MAX_SUPPLY;\n    \tbalances[msg.sender] = MAX_SUPPLY;\n    \tTransfer(0x0, msg.sender, MAX_SUPPLY);\n    }\n}",
  "sourcePath": "/Users/mark/drive/development/c50/contracts/GCS.sol",
  "compiler": {
    "name": "solc",
    "version": "0.4.19+commit.c4cbbb05.Emscripten.clang"
  },
  "schemaVersion": "2.0.0",
  "updatedAt": "2018-04-20T15:11:39.147Z"
}